{
  "contractName": "Posudba",
  "abi": [
    {
      "constant": true,
      "inputs": [],
      "name": "brojPosuditelja",
      "outputs": [
        {
          "name": "",
          "type": "uint256"
        }
      ],
      "payable": false,
      "stateMutability": "view",
      "type": "function"
    },
    {
      "constant": true,
      "inputs": [
        {
          "name": "",
          "type": "uint256"
        }
      ],
      "name": "posudjivac",
      "outputs": [
        {
          "name": "id",
          "type": "uint256"
        },
        {
          "name": "adresaPosudjivaca",
          "type": "address"
        },
        {
          "name": "Name",
          "type": "string"
        }
      ],
      "payable": false,
      "stateMutability": "view",
      "type": "function"
    },
    {
      "constant": true,
      "inputs": [
        {
          "name": "",
          "type": "uint256"
        }
      ],
      "name": "posuditelj",
      "outputs": [
        {
          "name": "id",
          "type": "uint256"
        },
        {
          "name": "adresaPosuditelja",
          "type": "address"
        },
        {
          "name": "Name",
          "type": "string"
        },
        {
          "name": "treba",
          "type": "uint256"
        },
        {
          "name": "posudjeno",
          "type": "bool"
        }
      ],
      "payable": false,
      "stateMutability": "view",
      "type": "function"
    },
    {
      "constant": true,
      "inputs": [],
      "name": "brojPosudjivaca",
      "outputs": [
        {
          "name": "",
          "type": "uint256"
        }
      ],
      "payable": false,
      "stateMutability": "view",
      "type": "function"
    },
    {
      "constant": false,
      "inputs": [
        {
          "name": "_name",
          "type": "string"
        },
        {
          "name": "_treba",
          "type": "uint256"
        }
      ],
      "name": "registratePosuditelj",
      "outputs": [],
      "payable": false,
      "stateMutability": "nonpayable",
      "type": "function"
    },
    {
      "constant": false,
      "inputs": [
        {
          "name": "_name",
          "type": "string"
        }
      ],
      "name": "registratePosudjivac",
      "outputs": [],
      "payable": false,
      "stateMutability": "nonpayable",
      "type": "function"
    },
    {
      "constant": false,
      "inputs": [
        {
          "name": "_id",
          "type": "uint256"
        }
      ],
      "name": "posudi",
      "outputs": [],
      "payable": true,
      "stateMutability": "payable",
      "type": "function"
    }
  ],
  "bytecode": "0x608060405260008055600060025534801561001957600080fd5b50611187806100296000396000f3fe608060405260043610610083576000357c0100000000000000000000000000000000000000000000000000000000900463ffffffff16806352309bb3146100885780636b6de4371461015a5780638b319e4d146102225780638f362ccc1461024d578063a76d988a1461033b578063d2b5b07a14610369578063f417552f14610469575b600080fd5b34801561009457600080fd5b50610158600480360360408110156100ab57600080fd5b81019080803590602001906401000000008111156100c857600080fd5b8201836020820111156100da57600080fd5b803590602001918460018302840111640100000000831117156100fc57600080fd5b91908080601f016020809104026020016040519081016040528093929190818152602001838380828437600081840152601f19601f82011690508083019250505050505050919291929080359060200190929190505050610494565b005b34801561016657600080fd5b506102206004803603602081101561017d57600080fd5b810190808035906020019064010000000081111561019a57600080fd5b8201836020820111156101ac57600080fd5b803590602001918460018302840111640100000000831117156101ce57600080fd5b91908080601f016020809104026020016040519081016040528093929190818152602001838380828437600081840152601f19601f8201169050808301925050505050505091929192905050506106b9565b005b34801561022e57600080fd5b506102376108ea565b6040518082815260200191505060405180910390f35b34801561025957600080fd5b506102866004803603602081101561027057600080fd5b81019080803590602001909291905050506108f0565b604051808481526020018373ffffffffffffffffffffffffffffffffffffffff1673ffffffffffffffffffffffffffffffffffffffff16815260200180602001828103825283818151815260200191508051906020019080838360005b838110156102fe5780820151818401526020810190506102e3565b50505050905090810190601f16801561032b5780820380516001836020036101000a031916815260200191505b5094505050505060405180910390f35b6103676004803603602081101561035157600080fd5b81019080803590602001909291905050506109d2565b005b34801561037557600080fd5b506103a26004803603602081101561038c57600080fd5b8101908080359060200190929190505050610f68565b604051808681526020018573ffffffffffffffffffffffffffffffffffffffff1673ffffffffffffffffffffffffffffffffffffffff1681526020018060200184815260200183151515158152602001828103825285818151815260200191508051906020019080838360005b8381101561042a57808201518184015260208101905061040f565b50505050905090810190601f1680156104575780820380516001836020036101000a031916815260200191505b50965050505050505060405180910390f35b34801561047557600080fd5b5061047e611063565b6040518082815260200191505060405180910390f35b600082511115156104a457600080fd5b6000811115156104b357600080fd5b60008090505b600054811115156105b15760006001600083815260200190815260200160002090503373ffffffffffffffffffffffffffffffffffffffff168160010160009054906101000a900473ffffffffffffffffffffffffffffffffffffffff1673ffffffffffffffffffffffffffffffffffffffff16141515156105a3576040517f08c379a000000000000000000000000000000000000000000000000000000000815260040180806020018281038252601b8152602001807f706f7375646974656c6a207665c48720726567697374726972616e000000000081525060200191505060405180910390fd5b5080806001019150506104b9565b50600080815480929190600101919050555060a06040519081016040528060005481526020013373ffffffffffffffffffffffffffffffffffffffff1681526020018381526020018281526020016000151581525060016000805481526020019081526020016000206000820151816000015560208201518160010160006101000a81548173ffffffffffffffffffffffffffffffffffffffff021916908373ffffffffffffffffffffffffffffffffffffffff1602179055506040820151816002019080519060200190610687929190611069565b506060820151816003015560808201518160040160006101000a81548160ff0219169083151502179055509050505050565b600081511115156106c957600080fd5b60008090505b600254811115156107c75760006003600083815260200190815260200160002090503373ffffffffffffffffffffffffffffffffffffffff168160010160009054906101000a900473ffffffffffffffffffffffffffffffffffffffff1673ffffffffffffffffffffffffffffffffffffffff16141515156107b9576040517f08c379a000000000000000000000000000000000000000000000000000000000815260040180806020018281038252601b8152602001807f706f7375646974656c6a207665c48720726567697374726972616e000000000081525060200191505060405180910390fd5b5080806001019150506106cf565b5060026000815480929190600101919050555060806040519081016040528060025481526020013373ffffffffffffffffffffffffffffffffffffffff16815260200182815260200160006040519080825280602002602001820160405280156108405781602001602082028038833980820191505090505b508152506003600060025481526020019081526020016000206000820151816000015560208201518160010160006101000a81548173ffffffffffffffffffffffffffffffffffffffff021916908373ffffffffffffffffffffffffffffffffffffffff16021790555060408201518160020190805190602001906108c6929190611069565b5060608201518160030190805190602001906108e39291906110e9565b5090505050565b60005481565b60036020528060005260406000206000915090508060000154908060010160009054906101000a900473ffffffffffffffffffffffffffffffffffffffff1690806002018054600181600116156101000203166002900480601f0160208091040260200160405190810160405280929190818152602001828054600181600116156101000203166002900480156109c85780601f1061099d576101008083540402835291602001916109c8565b820191906000526020600020905b8154815290600101906020018083116109ab57829003601f168201915b5050505050905083565b6000339050600080905060008090505b60005481111515610bbe578273ffffffffffffffffffffffffffffffffffffffff166003600083815260200190815260200160002060010160009054906101000a900473ffffffffffffffffffffffffffffffffffffffff1673ffffffffffffffffffffffffffffffffffffffff161415610a5f57809150610bbe565b60025481148015610ad257508273ffffffffffffffffffffffffffffffffffffffff166003600083815260200190815260200160002060010160009054906101000a900473ffffffffffffffffffffffffffffffffffffffff1673ffffffffffffffffffffffffffffffffffffffff1614155b15610bb1578273ffffffffffffffffffffffffffffffffffffffff166003600083815260200190815260200160002060010160009054906101000a900473ffffffffffffffffffffffffffffffffffffffff1673ffffffffffffffffffffffffffffffffffffffff16141515610bb0576040517f08c379a00000000000000000000000000000000000000000000000000000000081526004018080602001828103825260188152602001807f6e65726567697374726972616e20506f7375646a69766163000000000000000081525060200191505060405180910390fd5b5b80806001019150506109e2565b50826001600085815260200190815260200160002060000154141515610c4c576040517f08c379a000000000000000000000000000000000000000000000000000000000815260040180806020018281038252600a8152602001807f696e76616c69642069640000000000000000000000000000000000000000000081525060200191505060405180910390fd5b600015156001600085815260200190815260200160002060040160009054906101000a900460ff161515141515610ceb576040517f08c379a000000000000000000000000000000000000000000000000000000000815260040180806020018281038252600d8152602001807f76656320706f7375646a656e6f0000000000000000000000000000000000000081525060200191505060405180910390fd5b8173ffffffffffffffffffffffffffffffffffffffff166001600085815260200190815260200160002060010160009054906101000a900473ffffffffffffffffffffffffffffffffffffffff1673ffffffffffffffffffffffffffffffffffffffff1614151515610deb576040517f08c379a00000000000000000000000000000000000000000000000000000000081526004018080602001828103825260298152602001807f706f7375c491697661c487206920506f7375646a69766163206e65206d6f677581526020017f206269746920697374000000000000000000000000000000000000000000000081525060400191505060405180910390fd5b600160008481526020019081526020016000206003015434141515610e78576040517f08c379a000000000000000000000000000000000000000000000000000000000815260040180806020018281038252600f8152602001807f6e6576616c6a616e6920697a6e6f73000000000000000000000000000000000081525060200191505060405180910390fd5b6001600084815260200190815260200160002060010160009054906101000a900473ffffffffffffffffffffffffffffffffffffffff1673ffffffffffffffffffffffffffffffffffffffff166108fc349081150290604051600060405180830381858888f19350505050158015610ef4573d6000803e3d6000fd5b50600180600085815260200190815260200160002060040160006101000a81548160ff02191690831515021790555060036000828152602001908152602001600020600301839080600181540180825580915050906001820390600052602060002001600090919290919091505550505050565b60016020528060005260406000206000915090508060000154908060010160009054906101000a900473ffffffffffffffffffffffffffffffffffffffff1690806002018054600181600116156101000203166002900480601f0160208091040260200160405190810160405280929190818152602001828054600181600116156101000203166002900480156110405780601f1061101557610100808354040283529160200191611040565b820191906000526020600020905b81548152906001019060200180831161102357829003601f168201915b5050505050908060030154908060040160009054906101000a900460ff16905085565b60025481565b828054600181600116156101000203166002900490600052602060002090601f016020900481019282601f106110aa57805160ff19168380011785556110d8565b828001600101855582156110d8579182015b828111156110d75782518255916020019190600101906110bc565b5b5090506110e59190611136565b5090565b828054828255906000526020600020908101928215611125579160200282015b82811115611124578251825591602001919060010190611109565b5b5090506111329190611136565b5090565b61115891905b8082111561115457600081600090555060010161113c565b5090565b9056fea165627a7a72305820414038054f55c603f3b08ab8d40f904ea9bc8a275be220550ab0d07ef03dfbcc0029",
  "source": "pragma solidity ^0.5.0;\n\ncontract Posudba {\n   struct Posuditelj{\n       uint id;\n       address payable adresaPosuditelja;\n       string Name;\n       uint treba;\n       bool posudjeno;\n   }\n   uint public brojPosuditelja=0;\n   mapping(uint=>Posuditelj) public posuditelj;\n   \n    struct Posudjivac{\n       uint id;\n       address adresaPosudjivaca;\n       string Name;\n       uint[] posudio;\n   }\n   uint public brojPosudjivaca=0;\n   mapping(uint=>Posudjivac) public posudjivac;\n   \n   \n     function registratePosuditelj (string memory _name, uint _treba) public{\n        require(bytes(_name).length>0);\n        require(_treba>0);\n        for(uint i=0;i<=brojPosuditelja;i++){\n            Posuditelj storage test=posuditelj[i];\n            require(test.adresaPosuditelja!=msg.sender,\"posuditelj već registriran\");\n        }\n        brojPosuditelja++;\n        posuditelj[brojPosuditelja]=Posuditelj(brojPosuditelja,msg.sender,_name,_treba,false);\n     }\n   \n     function registratePosudjivac (string memory _name) public{\n        require(bytes(_name).length>0);\n        for(uint i=0;i<=brojPosudjivaca;i++){\n            Posudjivac storage test=posudjivac[i];\n            require(test.adresaPosudjivaca!=msg.sender,\"posuditelj već registriran\");\n        }\n        brojPosudjivaca++;\n        posudjivac[brojPosudjivaca]=Posudjivac(brojPosudjivaca,msg.sender,_name,new uint[](0));\n     }\n     \n     \n     function posudi (uint _id) public payable{\n         address _Posudjivac=msg.sender;\n         uint _posid=0;\n         \n         for(uint i=0;i<=brojPosuditelja;i++){\n             if(posudjivac[i].adresaPosudjivaca==_Posudjivac){\n                _posid=i;\n                break;\n             }else if(i==brojPosudjivaca&&posudjivac[i].adresaPosudjivaca!=_Posudjivac){\n                 require(posudjivac[i].adresaPosudjivaca==_Posudjivac,\"neregistriran Posudjivac\");\n             }\n         }\n         \n         require(posuditelj[_id].id==_id,\"invalid id\");\n          require(posuditelj[_id].posudjeno==false,\"vec posudjeno\");\n         require(posuditelj[_id].adresaPosuditelja!=_Posudjivac,\"posuđivać i Posudjivac ne mogu biti ist\");\n         \n         require(msg.value==posuditelj[_id].treba,\"nevaljani iznos\");\n         posuditelj[_id].adresaPosuditelja.transfer(msg.value);\n         posuditelj[_id].posudjeno=true;\n         posudjivac[_posid].posudio.push(_id);\n         \n     }\n   \n}\n",
  "sourcePath": "C:/Users/nikol/Desktop/sol/posudba/posudba/src/contracts/Posudba.sol",
  "compiler": {
    "name": "solc",
    "version": "0.5.0+commit.1d4f565a.Emscripten.clang"
  },
  "schemaVersion": "3.0.2",
  "updatedAt": "2020-11-04T23:11:47.879Z",
  "devdoc": {
    "methods": {}
  },
  "userdoc": {
    "methods": {}
  }
}